S0190000626C654D6F69737475726553656E736F72332E733337A3
S214004000007C0020ADA50000A9A50000A9A5000021
S214004010A9A50000A9A50000A9A50000A9A5000063
S214004020A9A50000A9A50000A9A50000A9A5000053
S214004030A9A50000A9A50000A9A50000A9A5000043
S214004040A9A50000DDA20000A9A50000697D00006A
S214004050E1A20000E5A200005DA50000EDA20000C0
S214004060A9A50000A9A50000A9A50000A9A5000013
S214004070A9A50000A9A50000A9A50000A9A5000003
S214004080A9A50000A9A50000A9A50000A9A50000F3
S214004090A9A50000A9A50000A9A50000A9A50000E3
S2140040A0A9A50000A9A50000A9A500006DA3000011
S2140040B0E9A20000A9A50000CDA20000A9A5000065
S2140040C025850000A9A5000010B5054C237833B956
S2140040D0044B13B10448AFF300800123237010BDD6
S2140040E0B000002000000000DCCC00000C4B43B108
S2140040F00C480D4910B5AFF300800C48036823B98F
S21400410010BD0A48036833B97047094B002BF7D037
S214004110BDE810401847064B002BF5D0184700BFE7
S21400412000000000DCCC0000B4000020AC00002042
S21400413000000000154B002B08BF134B9D46A3F54F
S214004140803A00218B460F461348144A121A06F08E
S214004150A7FA0F4B002B00D098470E4B002B00D031
S21400416098470020002104000D000D48002802D0CA
S2140041700C48AFF3008006F06FFA2000290000F02C
S21400418013F806F055FA00BF00000800007C002077
S2140041900000000000000000B0000020201B0020EF
S2140041A000000000000000002DE98048924B5B688C
S2140041B013F48063A7B008D04FF000531B68A3F138
S2140041C0020EDEF1000343EB0E034FF00052002117
S2140041D011601EAE002B41D1304602F085F901F089
S2140041E081FF0546002839D09DF87830012B30D164
S2140041F0446B02F06BF9209B5F0713D501F072FF4A
S21400420001F0E0FF044601F0E9FF3CB301F06AFF6D
S214004210044601F067FF794B986023689D46636803
S21400422098471BE084B105F09FFF84420CD205F04E
S2140042309BFF04F13803834206D8636923B1204606
S21400424006F024F80028D9D105F1C80006F01EF8BB
S214004250D8E7C83006F01AF80028D7D1684CE56CC5
S21400426030462D0E05F0E8FC8E2D1CD86549664AB2
S214004270D1F8B00040F00403C1F8B0304FF050134E
S214004280136013631366C2F89030C2F8C030C2F8E9
S214004290F030C1F8B0005B4AD36A23F07F0343F0E6
S2140042A02003D36201E08F2DF5D99DF87930574D64
S2140042B0012B01BF564A136843F004031360002322
S2140042C02B60544B02229A639B6B03F00F039342BE
S2140042D040F01C81D4F86C3101331DD04E4B1A6867
S2140042E0043B1B681A604D4B1A68043B1B681A6037
S2140042F04B4B1A68043B1B681A604A4B1A68043B0F
S2140043001B681A60484B1A68043B1B681A60474BC8
S2140043101A68043B1B681A603E4FFB6C23F0405340
S21400432023F0010343F00103FB64FB6E43F080734C
S214004330FB663F4B186800B1042005F0FFFC3B6E9F
S21400434023F0C0433B66FB6C43F006033046FB6439
S21400435005F072FC9DF87900012812D19DF878309E
S214004360022B0ED833490B785BB9334A136843F0F7
S214004370010313603B6E314A1A40314B13433B66D0
S2140043800870304BC8221A802F4BA0221A802F4B61
S2140043900F20188005F06AFC1E4B2D4A9A65D4F84B
S2140043A06821DF6CC7F30177C2F3072C5FFA82FE41
S2140043B03B0240F20112934200F0C784B3F5817FBE
S2140043C00AD2012B46D0C0F0CB84B3F5807F00F034
S2140043D0CB8400210B4642E040F20122934200F0DB
S2140043E0BB84B3F5407F00F0C284B3F5007FF0D104
S2140043F0D4F8703130E000BF00500E4000ED00E011
S214004400B081E00F00400E4000A00040B40AC64352
S21400441064310E4000300E403C80E00F4480E00FD8
S2140044204C80E00F5480E00F5C80E00F6480E00F6B
S2140044308009C6437405002044300E40000F0EF07D
S214004440B4C0400BEA160020EC160020E816002048
S21400445077402057D4F87431C3F30721DBB24FF40A
S2140044601678ACEB0E0008FB00F0B0FBF8F07044DA
S214004470CA1A844508FB02F2B2FBF8F21A4445D386
S214004480864543D88A4241D89A423FD3B649CB6D37
S21400449023F4FE4323F0020343EA0020C865236D9D
S2140044A0DBB2032B00F26684D4F87C31DBB21B034C
S2140044B013F4702F2AD1AC49C86E20F47040034321
S2140044C0CB664B6EE72A23F4FF7328BFE72223F060
S2140044D0010343EA42034B66A44B01221A608B6F2A
S2140044E0D807FCD40B6C13F003030ED001232B600B
S2140044F09D4B19469A6FD207FCD41A6C22F0030221
S2140045001A648B6F13F00103FBD12B60984D994F03
S214004510112005F045FC0021022005F05DFA6B6ACB
S214004520954823F001036B62944B4FF00008C3F8E4
S2140045300080AA6A924B22F0070242F00602AA62A4
S214004540EB622A6B8F4B02F07F6213432B638E4B1A
S2140045506B6305F0C9FF0121022005F03DFA41F624
S2140045607133D7F8409089483B6405F0FDFB2B4635
S214004570B9F1000F01D0C7F8408002225A677D4D7E
S214004580834805F017FF05F0AFFF06F043F82F6CE1
S21400459041F671332B6405F0E7FB0FB100232B6463
S2140045A0734F7A487B6AD5F8409043F0405841F6FE
S2140045B071332B6405F0D8FBB9F1000F01D000234E
S2140045C02B64724805F090FFC7F82480D7F8C830EF
S2140045D043F00103C7F8C8306E4BA26A9A650AA971
S2140045E008AA352005F0C8FD30B19DF82030042B10
S2140045F006BF0A9B18680020C30340F1CF836548B6
S21400460000230CAA816D99540133062BFAD19DF82C
S214004610353043F060038DF835309DF8363043F082
S21400462001038DF836305C4B5A605C4B5C4A1A606E
S21400463000274FF480715A609A6099829F751F8296
S214004640DF75584B584A1A605A609A6099829F756F
S2140046501F82DF75554B564DDFF8A481C5F88C7068
S21400466008221A70534B544A1A60544B544A1A6024
S214004670544B554A1A60554A6A60554A554B156060
S214004680554A2B601360AB6A544A6F65BB4208BF3D
S2140046901346534AAF6513606423A5F84430A5F863
S2140046A04630A5F84830A5F84070A5F84270A5F841
S2140046B04A30A5F84C30A5F84E304FF6FF73AB8263
S2140046C0112005F06DFB042840F0E18604F07AF92D
S2140046D0304605F0B1FA434B434AC3F8442148F24A
S2140046E0E672C3F838214FF40862C3F834213F4A13
S2140046F0C3F8A0209DF87930012B3D4B05D19DF8DD
S2140047007820012A9CBF28221A654AF63F429A6002
S214004710384B344FDFF8EC904FF0C0729A620023AB
S214004720C7F8FC30344BC7F89C30344B7F221A60F5
S21400473003F1007323221A6003F541533433032236
S2140047401A604FF40023C7F894304FF0010A402354
S214004750C8F800A0C8F800304FF46073C9F80030FD
S21400476003F07CFA50E000BF00300E409407C643CA
S21400477000400E4000000E400148E801A004C84377
S2140047802000050007AD0AD047A0020000F049024D
S2140047900005080000500840D000002080120020CD
S2140047A07806002068120020780500204C140020AF
S2140047B0840700206016002080B3000068160020E2
S2140047C098B300006416002088B300007807002025
S2140047D0F41100203159000028000020E169000093
S2140047E02000002000400840C0E653517A27000F02
S2140047F00030084000700840806D63032430084491
S214004800944008460C400846C9F800A003F01EFA7B
S21400481082460028FAD101234FF00450F86740F68C
S2140048201872C7F88030C149DFF8BC9306F0C1FCA7
S214004830BF4B3B6699E8070086E80700842251468E
S214004840BC4805F02DFF96E8070089E807006422BB
S2140048505146B94805F024FFC7F888A0C7F88CA0D1
S214004860C7F890A0626D2368D2B2FF2A43F30743CD
S21400487001D05F1C01D190221923AE49022093FB80
S214004880F0F342FA83F3CB7423234B74AB4B887458
S2140048904FF603721A60AA4AAA49AB48002313606F
S2140048A04FF08042C8F80020A84A1160A84A0321A9
S2140048B01160506040F6FF705062A64A1180A64A0A
S2140048C0A6491380A64A1360039351604FF4005123
S2140048D05162A44AF021116002F10072A021116019
S2140048E0A14A4FF00109C2F8B89002F0DDFA9F4ADB
S2140048F09F4BC2F800909F4A9F48C2F800909F4A7C
S2140049001A6003F0E3FE4FF4FA624FF47A73B0FBDA
S214004910F3F79B487A434FEA022A4FEA126B10EBF2
S2140049200A004FF00001974A4FF0000341EB0B01DD
S21400493006F0A8FA8E4AA0F58073824693624FF47A
S2140049407A7B18B92B2002F0DDFACA460BFB0AF276
S2140049504FEA520E00200346390210EB0E0041F1DA
S214004960000106F08FFA884B1960884B4FEA0A62FE
S214004970834618604FEA1A2A2FB92B20039202F0BA
S214004980C1FA039A01274FF47A734FEA570EA2FB37
S214004990030110EB0E004FF0000903FB0A113A4624
S2140049A04B4641F1000106F06DFA794B704F1960E5
S2140049B0784B1860784B0BF1FF304FF0805238631D
S2140049C0C3F880211A6001237B60744B7448072269
S2140049D0C3F8842003F07AFEC3084FEA103B714800
S2140049E0714A4FEAC35A10EB0A004FF0000141EB40
S2140049F00B01002306F046FA6C4B18604EF660205A
S214004A0003F092FD6A4B404218620721694803F0A2
S214004A10A1FD694B7B67A3F52003C7F88430674F79
S214004A204FF4002387F80090C8F80030644BDFF896
S214004A30BC91D3F8C82042F0CC018A4240F0D38122
S214004A40564AD268D00700F1CE81D3F81031C3F3AE
S214004A500823002B40F0C781EFF3108072B6594B45
S214004A60D3F818E0A3F5C0434FF06052D3F884C0E3
S214004A70C9F80020544A4FF0006111602422C3F8A0
S214004A808420524A042111604FF480429A664FF403
S214004A9080525A621A6E5104FCD51A68D205F9D5AE
S214004AA04FF480429A66D3F888101E911FFA81FA56
S214004AB047494FF0040BC1F800B04249C3F884C020
S214004AC0C1F818E09A6605F04BF94FF605034FF665
S214004AD00402924508BF9A46254BC3F858A0012306
S214004AE03B703C4B186803F035FE482200213A48DC
S214004AF005F0D6FD394B3A4A60210620596410600D
S214004B000022C3F88420374B4FF080521A604FF4CF
S214004B100013C9F800304FF06053C9F80030124B4C
S214004B2040F6FF725A625A6562E000BF00B40000A9
S214004B30B80F00217C0F0021180F00217C000844CC
S214004B407C000846857B0000E80800202014002032
S214004B5030100840161400201414002020080020EE
S214004B609010084040000844001008400C400844DC
S214004B7000500840C8400E46000406000011010020
S214004B8020A1070040420F004814002044140020D3
S214004B904C0B0020480B002000E100E000400840DD
S214004BA060510700B2E60E0065CD1D0040140020DF
S214004BB0900F0021B80700200300C0003814002022
S214004BC000400E4000600840186008460040084656
S214004BD000400844240000202C0F0021000008405C
S214004BE07000084494400844E00F00211860084410
S214004BF003F1C063A3F6BC73BF4A1960402111607D
S214004C00D5F88C20BD4912F0080F4FF0080014BFED
S214004C101860086012F0010F4FF0010014BF186012
S214004C20086012F0040F14BFB54DB64D4FF4007077
S214004C3012F0020F28604FF0020014BF18600860E0
S214004C40B14B12F0100F14BF00221B22DA640423AB
S214004C504FF0C0521946104604F0A0FCAB4BAC4FC8
S214004C60A1A1D1E9000103F10C05C3E915013B60E0
S214004C704FF0FF319EA3D3E900236FF0010004F04C
S214004C808DFC284604F050F89C4B38684FF001091C
S214004C9008221A60C3F8009003F5BF4358334FF458
S214004CA000721A609B4B02221A60974B1B22DA6432
S214004CB064234FF0000AA0F844309422A0F84A304B
S214004CC09623A0F84C20A0F84830A0F840A0A0F802
S214004CD042A00721343003F03DFC3D6805F10C008E
S214004CE004F01EFC4FF00063C8F800302B7B8A4AA5
S214004CF043EA09032B7353683D6823F00F0343F020
S214004D00030305F10C0005F13408844D5360514649
S214004D1003F0B3FF03F056FEC5F800A0C5F804A0E4
S214004D20C5F808A07E4B606AD3F888317D4CC04336
S214004D3000EA090003F48003184300F0C38303234A
S214004D402370794BFF221A70E8E3D4F87431190EF9
S214004D50C3F30743FFF783BBD4F87831FFF77CBB78
S214004D60D4F86C31FFF778BBD4F86C31EFE7D4F8A1
S214004D707031ECE7022FD4F8803108D0032F0AD028
S214004D80012F7FF493ABC3F30723FFF790BBC3F366
S214004D900743FFF78CBB1B0EFFF789BB0DF11F0205
S214004DA00AA92C2005F0E8F900283FF43EAC0CAD2B
S214004DB09DF81F200A99284606F0FBF90DF11F0200
S214004DC00AA93C2005F0D8F99DF8363040B10A9A79
S214004DD0127862F300038DF83630544B5D6024E49D
S214004DE060F30003F7E7142002F08CF877E6012B57
S214004DF02B68DFF864E14E4A4E4C4F484F4903EAB1
S214004E000C0311D143F003032B6007230325CEF8D0
S214004E1000301560236006230360494B0B60494B46
S214004E204FF440421A6071E343F0804343F01403AA
S214004E302B6007230425CEF8003015602360052379
S214004E400360C0230B6081223F4BEBE7FF2172E338
S214004E502068B860A288A37988F80630A8F80420ED
S214004E607AE33A4B099918681B791E90337141B35F
S214004E709DF81E201B2A28BF1B22531D8DF81D30AF
S214004E800DF17D00531C8DF87B3006F092F916A8C4
S214004E9003F0FEFF2E4A9DF81D301288F25226A916
S214004EA09A1C51FA82F2002102F8201C1698BDF8CE
S214004EB05C1042F81F0C093322F81B1C8DF81D30BD
S214004EC08DE30E238DF81D300A238DF87B30214BA1
S214004ED01A68CDF87D205A681B7ACDF881208DF8A7
S214004EE08530D4E7AFF30080081B8802000000007E
S214004EF0081B881A04000000884008444400084440
S214004F001C6008461C600844000008408407002017
S214004F10BC120020440008467C0F0021E00F002150
S214004F2000400E403A14002012000020D00000205E
S214004F30004108460C4108440C4108460841084414
S214004F40C1004000044108440841084618C3000058
S214004F5028C300001EC3000000410844BF4B1A8847
S214004F609B788DF85A300323ADF858208DF81C3006
S214004F7048E30921BA4879E33B79BA4ABA494FF47B
S214004F80804003F0E7FF3B794FF0000A08F1FF325C
S214004F90082BA4F802A092B200F096812DD8042B1C
S214004FA0B24D59D0062B00F09080022B2CD1022A4D
S214004FB040F05C82B6F80530AD4AAE494FF480400A
S214004FC003F0C8FFB6F80580AB4AAA49B8F5007FDB
S214004FD028BF4FF4007843464FF4804003F0BAFFF2
S214004FE000220323114602202B70A5F8018004F04E
S214004FF0F1F9A4F8008000F088BC102B00F0CA81FC
S21400500005D80A2B00F0BE804FF0060994E1122B5B
S21400501000F0F480522BF7D1A8F103081FFA88F5A8
S214005020B6F80530954A00954FF48040944903F051
S21400503091FFB6F8050001F0F3FB002800F0658448
S214005040037B5B0740F161842A468E49B6F805006B
S21400505004F0FDF900F059BC042A40F00782B7F8C6
S2140050600720B7F80530884900924FF48040874AF9
S21400507003F070FFB7F805901FFA89F318460493FB
S21400508001F0CEFBC846049B10B9A4F802904BE092
S21400509090F80890D0F804B07D4A0093B9F1020F5A
S2140050A00CBF4FF0010A4FF0020A534679494FF4FD
S2140050B0804003F04FFF05232B7085F801A0A5F86C
S2140050C002804A465946032095E0A8F107081FFAD1
S2140050D088F8B7F80530CDF80480B7F807200092B6
S2140050E06D496E4ADFF8DCB14FF4804003F032FFC2
S2140050F04FF00203B7F80500B7F807108DF84C30EC
S2140051000BF10203CDF804800093CDF848B012AB43
S2140051100CCB01F0ADFB4FF6FF794845804606D133
S2140051207B68C3F30F2363804FF00A0904E14FF056
S21400513002038DF83C30CDF804A0CDF800A0CDF8E1
S21400514038B001300EAB0CCB494680B201F090FB74
S214005150484582461CBF00F1FF3A1FFA8AFA4346CA
S214005160CDF800A04E4A4F494FF4804003F0F2FEBF
S21400517007232B70A5F80180A5F803A0002211468E
S214005180042038E0022A40F071814FF48040B6F8DF
S2140051900530454A454903F0DDFEB6F8050001F046
S2140051A03FFB30B94FF001097368C3F30F236380E8
S2140051B0BEE0037B990740F1AC83238826AA013B17
S2140051C022F86C3D12A9B6F8050004F01BF98146DA
S2140051D00028E9D1BDF82C50354A3649DDF848801C
S2140051E02B464FF4804003F0B5FE204B0B221A707E
S2140051F041462A46484604F0EDF886E3A8F103083F
S2140052001FFA88F5B7F805302B4A00954FF4804012
S2140052101B4903F09FFEB7F8050001F001FB0028CC
S21400522000F07A83037B1A0740F17D832A461549EE
S214005230B6F8050004F00BF98146002840F06E83AE
S2140052401E4A1F494FF4804003F084FE074B13228A
S2140052501A7049464A464846CDE700BF2BC30000B1
S2140052601EC30000FEB20000AFC300006C16002094
S21400527075B20000C5C4000028B20000CCB2000021
S21400528043C40000DF000020D1C4000019B30000B2
S2140052903FB20000C2C30000E6C300002CB300000B
S2140052A05AB200000FC4000094B20000EFC4000021
S2140052B084B2000034C40000C3B200009CB20000F8
S2140052C061C40000E1000020A8F105081FFA88F874
S2140052D0B8F1020F02D0B8F1100F2DD1B6F80720A2
S2140052E0B6F805306B4900924FF480406A4A03F0E6
S2140052F031FE6A4B12938DF84C800023B6F80710E7
S214005300B6F805000193009312AB0CCB01F0B0FA8F
S2140053104FF6FF739842054623D0238826AA043BFF
S21400532022F8763D0BA904F06DF88146D8B1658069
S214005330B9F1000F00F0E98296F804806588584AB3
S214005340584943468DE820024FF4804003F002FEA1
S214005350554B01221A7083F801805D8083F8049013
S2140053600CE77368DDE6BDF82280504A5049CDF858
S21400537000802B464FF48040DDF82C9003F0EAFDC9
S214005380494B09221A7008F102025A705D804246A3
S214005390494698E6A8F10505ADB2022D01D0102DBC
S2140053A0CAD1B6F80720B6F805303A4900924FF44D
S2140053B08040404ADFF8E4B04FF00009EDB203F059
S2140053C0C9FDB6F80500B6F80710CDF848B08DF858
S2140053D04C50CDF80490CDF8009012AB0CCB01F0F9
S2140053E047FA4FF6FF7A50458046BAD08DF84450BB
S2140053F0CDF80490CDF80090CDF840B008F101004B
S21400540010AB0CCB514680B201F032FA238826AAA4
S2140054105045A3F10603054622F8763D18BF00F175
S214005420FF350BA9404618BFADB203F0EBFF81462F
S21400543010B1A4F802807BE7BDF822901E4A1F49EF
S214005440DDF82CA043464FF480408DE8200203F0A0
S21400545081FD154B11221A7009F104025A70A3F847
S21400546002809D804A4651460520C4E64FF0040956
S21400547062E71022002112A805F012F9104B1293D1
S21400548012A902234846139304F046FE3DE23B462B
S214005490FFF7E5BBD1C40000F0B20000E100002039
S2140054A017B2000091C400006C160020ADB20000D8
S2140054B043C4000006B30000D5B2000067C4000075
S2140054C010000020C14B1A689B88A380226001F060
S2140054D02DFC41460A2001F0ADFA2378DFF898C388
S2140054E0022B7FF484AC2A6802EA0C0343F0804364
S2140054F043F020032B60B64B4FF4EE421A6003F1E4
S21400550000734FF48A421A6043F8049C002001F0AE
S2140055100DFCB04B03221A6001F064FAAE4C3868FA
S214005520B4F9002047F6FF718A423FF48FAC0021A1
S21400553003F042FC01463868DFF840830C3003F085
S2140055409CFB6468002C7FF483AC404603F0A0FC10
S214005550BB7B64F30003BB73A04AA14DDFF8209326
S214005560A04C2023BB82002182F80133284682F813
S214005570033382F8053382F8063382F8043382F860
S214005580073382F81C33602205F08AF89648974B5A
S21400559085E8090025236B7201232B720023C9F8C6
S2140055A000300DF11E021B2309A93620238004F0CB
S2140055B0E3FD0DF11D020AA9392004F0DDFDCDF84A
S2140055C00C9000283FF44DAC9DF81D200A99202A27
S2140055D028BF202230468DF81D2005F0EAFD07AAD8
S2140055E00AA93A2004F0C8FD00283FF4B7AC9DF89D
S2140055F01C200A99202A28BF202216A88DF81C20D5
S21400560005F0D7FDDFF87C92794800234FF0020AB8
S214005610C9F80030C9F80430764B036080F804A05F
S21400562004F01EF97448754B036080F804A010233C
S214005630037204F0EBF87248724B0360724B80F80A
S21400564004A0C36080F808A0A0F810A08DE80804A5
S214005650534690E80600143003F07CFF0998CDF816
S214005660109000283FF485AC9DF81E1004F008F951
S2140056706648674B03604FF0100980F8049004F00A
S214005680EFF86448644A654B03604FF6FE7A0823D9
S214005690C26080F80490A0F810A00372059304F08E
S2140056A0B5F85F485F4A02600C2202725E4AC2602A
S2140056B080F80490A0F810A004F0A8F85B485C4AB4
S2140056C0059B02604FF0020B5A4A80F80490C260B5
S2140056D0038280F808B004F099F85748574B0360E7
S2140056E0574BC36080F804900123038280F808B00B
S2140056F004F08CF85348544B0360544BC36080F856
S2140057000490A0F810A080F808B004F07FF8504885
S214005710504B0360504BC36080F80490A0F810A074
S21400572080F808B004F072F84C4B049A1A604FF6F2
S214005730FF729A809DF81D20202A05D8931DAB7312
S2140057403146474805F035FD9DF81C20202A06D82E
S214005750931D85F8363016A9424805F02AFD04F058
S2140057600DFC2B7BBA7B43F001032B736B7B02F0A3
S214005770010203F0F00362F386136B73AB7B0BB985
S2140057800623AB73384BB8F80410D8F8000099809D
S214005790186095F83530042161F3030362F386132D
S2140057A085F8353095F8363013B9062385F8363047
S2140057B02E4BD8F80000B8F8042018609A802C4FBA
S2140057C000F05EFA3E462B4A5EE000BF84C500004D
S2140057D02441084458410844D000002000E100E07D
S2140057E0E80A0020CC000020D6BE898E555555000C
S2140057F0A80800202FC30000E803002032C30000E2
S2140058004805002035C3000014B20000C808002078
S21400581038C3000040040020F961000049C30000BE
S214005820980400205AC30000516500003803002089
S2140058306BC300003FB30000F00400207CC30000F0
S21400584002C50000900300208DC3000031650000F3
S214005850E00200209EC3000061610000A80B00204B
S214005860FD0A0020250B0020F70A00201F0B002051
S214005870D800002064120020E8FFFFBFC4120020FA
S214005880DC020020741600201378002BFCD0EFF307
S214005890108572B600231A460DF12101234803F045
S2140058A063FB284604F05CFA9DF8213013B1039A96
S2140058B000231360039B1A68EFF3108872B6C2F5D4
S2140058C001739BB23A440DF12101184803F04CFBDA
S2140058D00546404604F044FA039B1868284403280B
S2140058E018607FF670AFB7F8008008F1040398429E
S2140058F0FFF469AF09D8B7F80290B9F1040F3FF486
S2140059003BABB9F1060F3FF4B4AD039A0023136026
S21400591059E74FF0020947E44FF001097368C3F3F3
S2140059200F23638008E54FF00309F7E768120020AD
S2140059302DE9F04FBE4E8BB011464FF48670994657
S214005940904603F0B9FA336935463BB941464FF401
S214005950837003F0B1FA0BB0BDE8F08FB9F1000F19
S21400596008BFB8F1080F40F0368100214FF481706F
S21400597003F0A2FAEFF3108A72B6AE4BAE4E18885A
S214005980AE4D3468049300F03F0202F03C01294417
S2140059900596DFF8D09264BBB9F800300344033BA9
S2140059A003F03C035C19A21A521BB9F8000048BF6A
S2140059B04032904220DC504604F0D2F9019B069318
S2140059C09B4B03995A681B69527A8DF81C209DF8E8
S2140059D01E208DF81DB061F300028DF81E20029A7D
S2140059E0099206A90220ADF82070984703F0D4FF6C
S2140059F0B1E724F00104D6E7A142914940F0C78000
S214005A00CE6BB6B2D1F88000C0F30C00824280F2B2
S214005A10C78020880304CED494F8028008F00708D4
S214005A20871BB8F1050FC7F3090708D902F0ACFFCA
S214005A303F1A3FB2002F02DA042001F063FA814ACF
S214005A40C6F3080693195046BFB2029304F088F9CD
S214005A50002CB3D018F0070F06D0EFF3108072B604
S214005A60794A146004F07CF9022C1FD8EFF31080FA
S214005A7072B6049B198801F03F020BD1059B1C6887
S214005A80002C40F09E80B9F800300B44033B03F036
S214005A903C03EC18A21A551BB9F8002048BF403545
S214005AA0AA4289DD04F05CF9002C87D026883104F0
S214005AB084D4A37803F00703052B7FF67FAFDA1FA5
S214005AC053425341039302F05FFFC5B2002D7ED0D0
S214005AD05B4B1B6B03F007030633012202FA03F34A
S214005AE0063E591EB6B231405E1A584B5B68AE424F
S214005AF043F00058414467D2324606A805F059FBE9
S214005B0006ABAA1B4146981905F053FB504B514A69
S214005B10D3F80080D36B9DF918B0DDF81A60C3F394
S214005B2001114FEA134901FB099342F210718B42AF
S214005B303FF644AFD26902F01F0909F10109994402
S214005B4002F0DEFE444B19684FF000420023E1FBF2
S214005B5006231C46414B1B680025E3FB0645D8F888
S214005B6034304FF47A7203F5FA73B3FBF2F33C4A1F
S214005B70E41A1423B0FBF3F302FB09390A23B0FB43
S214005B80F3F0B9FBF0F9A4EB0903019316E7201F25
S214005B90A84238BF04F13C000688C6F30C0631E77D
S214005BA08F6BBF1BC7F3090702F050F837B90328FD
S214005BB014BF4FF000084FF0080840E74FF0080801
S214005BC03DE724F0010465E72A4606A89CE76FF047
S214005BD07F0B0195F2E6B9F1000F08BFB8F5002F6C
S214005BE009D1002140F2011003F066F93369002163
S214005BF001209847AFE608F4C0520023134309D0AB
S214005C004FF480714FF4817003F056F93369002128
S214005C100320EEE708F440720023134324D001214A
S214005C204FF4817003F048F92B690021FF20E0E76C
S214005C30BC1200201414002018140020D4130020D6
S214005C4000100840E80800208C160020301008409D
S214005C50F411002000600840480B00204C0B002088
S214005C60A08601001614002008F0207200231343BB
S214005C7019BF012140F2011041464FF48370D1E76D
S214005C802DE9F84F394C3A4F2646637A394D0133A1
S214005C90DBB2272B88BF25232046637204F0D6F993
S214005CA0B17B354896F80C80023104F0ADF96B688C
S214005CB0324A5B7A08F00108404612F803A004F066
S214005CC071F92F4BD5F80080D3F8883013F0A00F69
S214005CD008F10C0923D15146484601F02BFAF0B9D9
S214005CE0484603F0CDFBD0B9B8F84A3042F21072FD
S214005CF0934298BFD01A02F089FE8346EFF3108ACB
S214005D0072B6DFF88880D8F8A430DB0704D4D8F859
S214005D100C3013F0060905D0504604F021F804F0C4
S214005D202DF9B2E701F060FF164BC8F86C30164B41
S214005D30C8F8709008221A60144B4FF400610122D4
S214005D403A60596640F6014119670320594602F049
S214005D5095FE18B90C4B80221A60DDE7504603F01A
S214005D60FFFF0B4B2B61BDE8F88F00BFE80A002051
S214005D70A4500844BC120020F50A00202CC70000DE
S214005D8000400840000001018840084400500840D8
S214005D90955D000002282DE9F3410D461ED002D87D
S214005DA0012805D0FEE7032851D0FF284FD0F9E799
S214005DB04F4C237B980707D504F0E0F8FFF760FF09
S214005DC0237B6FF341032373237B990701D4DA0700
S214005DD01ED402B0BDE8F041FFF752BF8B79CC6805
S214005DE0DB0734D5227802F00F07032F13D0052FD8
S214005DF02DD140498B7B03F00103B3EBD21F04F196
S214005E00080005D10622083105F0C4F9804608B31B
S214005E1002B0BDE8F08137498B7B03F00103B3EB9A
S214005E20D21F04F10800F3D10622083105F0B2F9BA
S214005E300028EDD12E4C94F8361004F135000231CE
S214005E4004F0E2F8237B43F002032373E0E704F058
S214005E5095F8BEE704F092F82E68274D41465C227E
S214005E60284604F01DFCAB7E2F8343F02003AB7660
S214005E70627E237E43EA0223AB84627F237F43EA6B
S214005E800223EB8494F82330C3F3040385F84F30E1
S214005E9094F82330C3F3421385F8503004F11E0003
S214005EA01B232B8501F03EFED4F80E30E27CEB601F
S214005EB0A37C2E6043EA0223227D607D43EA0243F0
S214005EC02B61012795F84F30AB722F75E18A394464
S214005ED001F014FE01F0F6FAEA8CAB8C074900924A
S214005EE04FF40060064A03F035F8064B1F708FE744
S214005EF0E80A0020BC1200200812002097C5000007
S214005F008AC500006412002040F628031B68A3F52B
S214005F100062B2F5605F07D21B6BA3F50062B2F5B4
S214005F20605F01D2DB6B184740F20110704740F605
S214005F30280310B41B68A3F50064B4F5605F09D2AB
S214005F401B6BA3F50064B4F5605F03D29B6B5DF832
S214005F50044B184740F201105DF8044B704738B503
S214005F600D4611462C68A41A2246014405F02CF969
S214005F702C6038BD2DE9F0474D4B4E4CDFF85C9158
S214005F804D4D0E464D491B1B17460B44D9F80020B5
S214005F9023F4FF63801A23F0070398422860C8465C
S214005FA06DD33A44141804F0DFF8A0F5805084420C
S214005FB065D2D9F800003C18B4F5806F03D9822268
S214005FC03F4B1A7069E0DFF810A131463D4E3A4665
S214005FD0504405F0EEF8C9F80040D6F80090B9F144
S214005FE0000F1BD1D72C58D9374A0AF1C8030AF13B
S214005FF0D80A53F8041B42F8041B5345F9D132481B
S21400600004F044F908B98422DAE71022FF212F4869
S21400601004F046FB2B682E4AC833136028682D4BC5
S21400602004F003070444E41B1C40B9F1000F09D137
S2140060301840C0F500612144FFF766FF346040B1A8
S2140060408522BDE7A14504D2A4EB090109F500604D
S214006050F2E7D8F8002020492868D21BFFF767FF30
S214006060D8F800202B681D49D21B044613441A4852
S2140060702B60FFF774FF002CE2D1BDE8F087184BC9
S2140060805B68B3F1827F0E4B10D21A7831463744E4
S2140060900020B94203D1002893D1BDE8F08711F85B
S2140060A0014BFF2C1CBF01208322F2E7832288E7E6
S2140060B0B000002010000020BC0B002027D50000F8
S2140060C0B90B0020EC110020D40D0020B00E0020EB
S2140060D0E40D002000F8FFFFE80D0020E811002086
S2140060E09C0B002070B51A4D286810BB194A1A4C34
S2140060F01A4BA41A1C4424F4FF6424F0070404F08A
S21400610033F8844214D2666BA6B104F02DF88642AA
S21400611010D204F029F806F1380383420AD8304634
S21400612004F0B4F830B1F36933F0080302D02C6001
S214006130286870BD04F1C80004F0A8F820B1D4F8AF
S214006140E43033F00803F2D104F50064D7E700BF6B
S214006150500B002010000020B000002027D50000C3
S21400616070B50E46B0B9FFF7BDFF0446FFF7BAFF9D
S21400617060B1094D04F1C80304F5807418685968C5
S2140061802A4603C20833A3421546F7D1034B3360B1
S2140061900423B380002070BD540B0020740B002035
S2140061A0BFF34F8F0549064BCA6802F4E0621343FB
S2140061B0CB60BFF34F8F00BFFDE700BF00ED00E0F0
S2140061C00400FA0540F628031B68A3F50062B2F542
S2140061D0605F01D25B6A18470020704740F62803CC
S2140061E01B68A3F50062B2F5605F01D21B6A184710
S2140061F04FF481707047000001282DE9F34740F006
S21400620012818B88012B40F010810B681B7813BB22
S214006210954A964C1360964A1360964A1360964ABF
S2140062201360964A1360964A1370964A1360964A0D
S21400623013602278022A01D1FFF7D0FF01232370D2
S214006240924B00241C70924B1C70924B1C70204684
S21400625002B0BDE8F087032B40F0CB808D4B834E19
S2140062601C78002C43D13378002B00F0BC80844B84
S2140062701B78082B56D17C4A1368904653B940F6D3
S21400628028052B68A3F50063B3F5605FC0F0D180E6
S21400629080242CE013F003071ABFC7F10407FFB2EF
S2140062A0274603EB070ABAF5806F00F2A0807A480B
S2140062B03A461844FF2104F0F3F9724B6C4AC8F8CA
S2140062C000A015681A6815445544DFF8B0A125F4F7
S2140062D0FF65DAF8000025F00705854299460BD9D8
S2140062E0291A00F50060FFF70FFE18B18524002379
S2140062F03370ACE7CAF80050D8F80010D9F80000A0
S21400630003F038FCD9F80030D8F80020564913447A
S2140063100546DF1B6048C9F80070FFF720FE002D19
S214006320E4D1ACE7002B60D0584B1B78002BAFD0E5
S214006330554F3B6843B9504B584918681022FFF731
S214006340F6FD0028D2D1D2E713F003021CBFC2F13B
S2140063500402D2B203EB0209B9F5806F47D8504861
S214006360444DDFF86481FF21184404F099F94D4943
S2140063704D4B4E4AC7F800905B1A13442A6803EA4E
S2140063800803934201D98324B1E7914403F0ECFE5D
S214006390A0F580508145F6D22B683A68DFF8DC908D
S2140063A01344D9F8000003EA0808804509D9A8EB89
S2140063B0000100F50060FFF7A7FD002896D1C9F898
S2140063C000803A6836492868FFF7B1FD2B683A68BE
S2140063D02D498046134432482B60FFF7C0FDB8F1C4
S2140063E0000F83D1A7E7812481E784247FE78224F6
S2140063F07DE7042B1BD12E4C2E4A2F4913234FF436
S214006400006002F0A7FD132302212046637021706E
S21400641001F02EF9294A2A4B128905329A80294A18
S2140064201A6062789A71002411E70D240FE706249B
S2140064300DE703F0BFFB00287FF42AAF2B6801901E
S214006440A3F50062B2F5605F03D3114B01221A7008
S2140064504DE71B6BA3F50062B2F5605FF5D29B6952
S214006460012101A89847F0E7B40B0020BA0B0020E2
S214006470F0110020BC0B0020E40D0020EC110020E1
S2140064808C0B0020C00B0020E8110020B80B002069
S21400649005120020B90B0020EE160020D40D0020B7
S2140064A0E80D002010000020B000002027D50000D6
S2140064B0B0120020B4C50000C4C5000008120020B9
S2140064C09C1200208D9E000000F8FFFF40F6280377
S2140064D01B68A3F50062B2F5605F01D2DB6918475E
S2140064E04FF481707047000028231A68B2F5006FD9
S2140064F003D3002303708360704740F628031B68AD
S214006500A3F50061B1F5605FF3D21168064A9142C7
S214006510EFD11968054A9142EBD1012202709A68C0
S21400652042609B69E7E700BFAD1007B007B0CD5EDD
S21400653010B50C4630B90448FFF7D6FF034B23606E
S2140065400423A380002010BD900B0020940B002095
S2140065502DE9F04F01288BB040F026818A88002A6A
S21400656000F02481A04D95F800B0BBF1000F00F0BC
S2140065701F819E4B1C7898465CB99D4806788246DB
S2140065803EB99C4E30681718B7F5806F05D982243F
S2140065901C7020460BB0BDE8F08FDFF874920968D7
S2140065A0484404F006FEBBF1020F376031D0032FDB
S2140065B0EFD9914F3846FFF797FF3B78D9F8002080
S2140065C0012B8E4B54D19A4254D1BB68DB0359D56C
S2140065D002232B70FFF77AFF40F628031B68A3F50B
S2140065E00062B2F5605FC0F0E5800398844B854A90
S2140065F0186020F4FF6323F007034FF40061136074
S214006600FFF782FC78BBFFF76DFD30BB2B78022BC3
S214006610BFD17D4B7D4F1A7812F0F70F994640F0A8
S214006620A080774B35681B6805F0030B1D443B685C
S2140066301D44744B0193A5EB0B0525F4FF65186804
S21400664025F00705854220D9291A00F50060FFF7D6
S2140066505BFC019BC0B18524A3E04FF40061FFF70B
S21400666053FC0028D2D0852388F800301C4690E7DB
S2140066709A4207D0842388F8003098F80030002B20
S21400668087D0F1E78623F6E71D6031683868A1EB0E
S2140066900B0103F06FFA32683B685649A2EB0B0217
S2140066A0054613445A483B60FFF759FC002DD2D1EB
S2140066B099F80030002B7FF46CAF3B687F2B7FF798
S2140066C068AF02A903A803F02FFA10B9039B89F854
S2140066D0003099F8003013F0F70F3FF45AAF40F649
S2140066E028053B682A68A2F50061B1F5605FB2D262
S2140066F0126BA2F50061B1F5605FACD20021D2F852
S2140067000C90434A0846C8470028A4D13B6833602B
S2140067103C4B404F1860404B7B602B68A3F50062F3
S214006720B2F5605F97D29B6A3C484FF40071984779
S214006730002890D12A683368A2F50061B1F5605F41
S2140067404BD340F2022532682A493148FFF707FC4E
S21400675040F203239D421BD040F201239D421FD1ED
S21400676017E73A6833681A443A6040F62802126817
S214006770A2F50061B1F5605F28D340F202253268C9
S2140067801C492348FFF7EBFB40F203239D4203D14D
S21400679001238AF80030FCE640F201239D4287D0B0
S2140067A0802488F80040F4E60024F2E60D24F0E6A3
S2140067B08124EEE61B6BA3F50062B2F5605FBFF4C2
S2140067C014AF9B6803A9002098470EE7D56A1149C5
S2140067D00F4A1248A8470546D1E7D56A0F480C4A23
S2140067E03946A8470546AEE7BA0B0020B90B00208D
S2140067F0B80B0020B40B00209C0B0020EB17A60360
S214006800F0110020EC1100208C0B0020C00B0020A3
S214006810EE160020C40B0020755F0000D40B00208D
S21400682010B508B3114B1A68918881421CD3998819
S214006830814281BF0121126899809A6099889A687E
S21400684000242AB904B19A604FF6FF71998004E0DB
S214006850884204D10CB198809A60104610BD013170
S21400686089B201241268ECE70022F6E7A80B0020A4
S2140068702DE9F04385B0044688468DE80C000C9E52
S214006880BDF83470FFF7CCFF4FF6FE7905460DB124
S214006890444505D94FF6FF74204605B0BDE8F083A1
S2140068A02B7A9DF804209A421ED10099686804F05D
S2140068B071FCC8B9002EEFD02B69AA8A53B14A459D
S2140068C008D10290ADF80C0002A9984760B9029B67
S2140068D0BDF80C2043B1974206D13A4619463046D9
S2140068E004F058FC0028D7D001342D68A4B2CEE7B7
S2140068F00B4BD3F8942002F00702022A04D001D3EF
S214006900042A0AD9074800E00748D3F80031C3F341
S21400691004230133B0FBF3F070474FF40040F4E774
S21400692000400E40C0EA210100F0490270B525493A
S2140069300B78032B44D0244C236823F47F5222F098
S2140069400802130A5A2803F47F5316D94D88B5F562
S214006950E16F14D8C92843F6C87632BF0025012552
S214006960334613431E2823604FF001030BD8174A03
S214006970136093610822164B21E00025F1E70125FC
S21400698043F6C873EDE7134A502813609361F1D9B4
S2140069904B88B3F5E16F01D87828EBD90E4A4DF64F
S2140069A001731360002D936102F1007214BF4FF45F
S2140069B057434FF4504313609361084B08221A6004
S2140069C070BD00BF3A140020E00F002108410844C3
S2140069D09440084408410846044108449440084648
S2140069E07047000008B501F06BFF01380F4B082810
S2140069F01AD8DFE800F00519111113131515150044
S214006A000B4A1278012A4FF0440201D19A6001E045
S214006A10002199605A6008BD0022F7E73322F5E7A7
S214006A2000229A60A222F5E7F722FAE7E00F00219B
S214006A303A140020F8B5354B354A002808BF012027
S214006A401860344B9B69C3F38213072B0D461370F3
S214006A5005D0012202FA03F313F04C0F51D12E4B4E
S214006A601B78022B4FD0012B0CBF3221B4212B4CAC
S214006A70002342F2107601FA03F252117243B2FB7F
S214006A80F4F2904202D30133102BF4D1214C244A65
S214006A90224F0904E16640F6FF711160013B02F1E6
S214006AA000721B021360E16EE36EE26EA06ED4F815
S214006AB068E0A66E184CCEF3031EC6F30326C2F398
S214006AC00742C3F3072303FA0EF3B24000F00F00A9
S214006AD0C9B242F21076814052115B117243734381
S214006AE0B2FBF7F2B3FBF7F34911134428464E43C3
S214006AF00121B6FBF7F61E44A68001F02BFDA08808
S214006B00F8BD0021B3E79621B1E700BF00120020D0
S214006B101C000020006008403A14002000DC05003D
S214006B20686008442DE9F84F764BDFF8FCB15F68E3
S214006B30754BD3F8A090D3F8A480044600F128053E
S214006B404FF0010A11B10A68531C4DD1FFF74AFFF6
S214006B506E4B6F4A9B691278C3F382139A4204D035
S214006B606C4B29461868FFF765FF664B5E68664BF8
S214006B70D3F8A010D3F8A42089450AD06648037835
S214006B80C1F3802E6EF30003C1F3C02161F341030D
S214006B90037090450AD060490B78C2F3802060F3FA
S214006BA08203C2F3C02262F3C3030B70B74200F045
S214006BB09F8026B1336813B1B068002854D1EFF334
S214006BC0108072B6554A136823F00703136003F06B
S214006BD0C7F8534B00221A605A60002E72D1334613
S214006BE0194618461A4676E0C2F30260C2F3074614
S214006BF05BF8200093B2012E43EA000310D9B600DA
S214006C0088190A46A3EB010C0CEB020E52F8043F5F
S214006C10CEF800309042F7D104360E44314691E764
S214006C20120F01F108064868072AF7D8DFE802F0D5
S214006C30070409110C0F1417C04303F18063186092
S214006C40ECE71A685040FAE701F0F6FEE6E70AFAC3
S214006C5000F003F1C063F2E70AFA00F0EDE71A6805
S214006C6030EA0202FBD1D9E72E4B2D4F07221A60DD
S214006C7003793B70417991FAA1F2B2FA82F2202AA6
S214006C8008BF4FF0FF325FFA82FE21FA0EF102F0E3
S214006C900F0242EA01127A708279BA70C279FA70EB
S214006CA002687A60184A01339361EFF3108072B677
S214006CB01A4A116881F0070303F007034B4013607C
S214006CC003F04EF83368002B8AD03269BAB1906868
S214006CD01168D3895268E26243F2C822934228BF01
S214006CE013462063A162E3860721284601F032FCA2
S214006CF0237843F0020323700020BDE8F88F134684
S214006D006EE700BFEC0F002100000840006008405E
S214006D101C0000200012002088160020180F0021FA
S214006D20740F002104000844D8C50000F8B50446D6
S214006D30C820FFF7FBFD444B444F1D78032D03D1BD
S214006D40FF243C702046F8BD012D414A16D1072C81
S214006D5012D8012C08BF022411683E4B0B4043EAB0
S214006D60046313603C4B04221A60A4B2E4B22046CB
S214006D703C70FFF7DBFDE5E70724EDE7116821F03F
S214006D80F95121F4FE1141F47F5141F008011160E0
S214006D90002D47D1042C47D9231FDCB201262F4BE8
S214006DA0D3F88821D24302F4FE1242F40052B2FA1B
S214006DB082F2C2F11302C2EB4212D3B2A34228BF40
S214006DC02346DBB29AB28DBBB4001444244A7BBB84
S214006DD02448C2F858011F25B3FBF5F5EAB2501C4B
S214006DE0C5EB451501225D1B8240013A2D06920334
S214006DF005F1807502F47F12154B29431143184A9A
S214006E001960D2F85831D4B123F07F4323F004033D
S214006E1043F07F43C2F858314FF480038EB1124AD4
S214006E201360A3E70026BAE72E46B8E70024CCE7AF
S214006E304FF0E060013BC2F85801DBB2CBE70B4BEA
S214006E40E8E70B4AECE700BF3A14002012000020E7
S214006E50E00F00213F00C0E05841084400400E40CB
S214006E60004008402C0000070841084604000007C0
S214006E7008410844094A0A494FF48033C2F8E8300A
S214006E800B60916B074BC9B29961926BC2F30722F4
S214006E909A6104229A6100229A61704700100840A5
S214006EA0EC1008466010084010B4EFF3108072B67D
S214006EB00E4A0F490F4C01239365C2F88830002311
S214006EC00B604C6003244C620B490C800B495DF848
S214006ED0044B0B804FF4A021C2F8E81002F1C06208
S214006EE0EC321160064A136002F03ABF0010084008
S214006EF060100840D413002016140020141400203C
S214006F0018140020034B044A18601860034B1268DC
S214006F101A60FEE714000020F4110020180000207C
S214006F202DE9F8431F464369012B06460D46904659
S214006F305FD001F0BDFE012825D1B8F80C30D8F896
S214006F400440D8F80890ED1AADB23F2D23D8584B20
S214006F501A689442984604D1564B1B68994500D14E
S214006F609FB301F0ADFC074601F0AAFC48B1524BB6
S214006F70B3FBF0F39C4204D3504BB3FBF0F08442D7
S214006F803DD90E208EE0012002F052F801F090FE6E
S214006F900128FBD1D1E7AA094FEA891302FB034473
S214006FA005F03F05D3E71178454A4A43B2FBF3F3B1
S214006FB0444A136501F002FC434BD3F83831DB0634
S214006FC054BF4248424801F0C5FB304601F0ACFED3
S214006FD000F03CFE0428FBD00A28F9D008B10F20A8
S214006FE060E0384B9D6303F5805380229A6001F081
S214006FF0E5FB0020BDE8F8830220BDE8F883012FFA
S2140070004FF0100350D0334A1360002FF4D0C8F866
S21400701000407C43304ADFF8AC800023E004610B7C
S21400702003F030FFC8F82C00D8F830102A48C1F317
S2140070301301FA040023A1FB000103F023FF274BF2
S214007040254A18601B4B4FEAC940C3F80090A0FBC6
S21400705007014FEA593307FB0311002303F012FF21
S2140070601F4AC8F83C00137823B9D8F8503003F00C
S2140070703F031370144BD3F8943059069AD5194B26
S214007080B4FBF3F340F24D5103FB03F041434CF2E3
S2140070900C6000FB131303F5C91303F55563002BAF
S2140070A081D12B20FFF72EFF0F4A1360AFE700BFFA
S2140070B0341400202C14002000371789007DDAAC29
S2140070C0809698000030084000400840C0CF6A0014
S2140070D0E06735003841084600F0490230140020C9
S2140070E00412002000366E0138410844431E012B6E
S2140070F003D9031F584258417047012070470000CB
S214007100B1F9122047F6FF739A4210B50BD0074B21
S21400711004791978064B186801F04EFE84428CBF3D
S2140071200020012010BD012010BD00BF3A14002031
S214007130F41100202DE9F04F6D4F466A3B68D0F8F9
S214007140209089B00025039343880193039B8DF814
S2140071501F50B342044688468DF81E5003D113B123
S214007160019B99424ED0B9F1000F00F0BC80D9F8CF
S2140071700820002A00F0B780D9F80C20002A00F07A
S214007180B2805C4A0492136802934FF0000A1822F9
S2140071904FF0010BD9F80C108A4515D2D9F80850D3
S2140071A002FB0A55E989414531D8298A41452ED343
S2140071B02946204605928DF81EB0FFF7A1FF059AD6
S2140071C020B38DF81FB02E464B4A92F800A09DF8CB
S2140071D01F20A4F10C0BEAB12179204601F041FDF5
S2140071E0049B1A68002A63D091453AD13968002971
S2140071F037D08E4235D1019B98451ED16662A4F8E1
S21400720002800025284609B0BDE8F08F2E460AF118
S214007210010ABFE79DF81E20002A66D0B6F91220A4
S21400722047F6FF718A4206D034495846097801F07D
S214007230C3FD0146D1E7FF21CFE700233246414692
S2140072402046FFF76DFE05460028D7D0514620465B
S21400725001F007FD00233A6801992046FFF760FE1B
S214007260D0E7116821B3D9F80000814220D15168D7
S2140072702046FFF757FC0546E8B931682046FFF779
S21400728051FC0546B8B9049B6662C3F80090A4F8A2
S214007290028001233246414620463E60FFF740FE0C
S2140072A0054640B9164B31461B6858469847A9E72D
S2140072B0D9F80010DCE7049B1A46029B1360039B78
S2140072C03B60029B1BB119682046FFF72BFC51461A
S2140072D0204601F0C6FC3B68002B93D01968204678
S2140072E0FFF720FCB6E703258CE701258AE700BFF9
S2140072F0FC110020F8110020120000203A14002093
S21400730020000020837DDB0701D5808A7047426815
S21400731083689B1A44BF828A9B1898B270472DE9EF
S214007320F04105461646FFF7EDFFAB8A181A80B205
S214007330864228BF0646884637465FB93EB16B6828
S214007340AA689A4202BFAB7D43F00103AB75304694
S214007350BDE8F081AB8A2C68A8681C44241AA3B246
S2140073609F4234BF3C46A4B22246414603F021FF6A
S214007370AB682968AA8A23440A44A0449342A7EB30
S2140073800404AB60A7B228BFA960D6E7F8B51646D6
S2140073900546FFF7B7FF864228BF0646B6B20B463D
S2140073A0374647B92EB1AB7DDA0744BF23F0010359
S2140073B0AB753046F8BDAA8A2C6869681444641A0E
S2140073C0A2B2974234BF3C46A4B22246184603F007
S2140073D0F0FE6A68A98A03462868224401442344CA
S2140073E08A42A7EB04046A60A7B228BF6860D8E7A1
S2140073F008B5194A19491A4C03464FF4006001F0C3
S214007400A9FD184A937E43F040039376164B00225C
S2140074101A70164B1B78012593B1FFF757F84FF0FB
S214007420005340F20222A5601A804FF20F025A80E3
S214007430236823F4E06343F480632360FEF7B0FE22
S2140074404FF00052A5601360236823F4E06343F412
S21400745080632360FEF7A4FE41C60000C4C500009A
S21400746000500E4008120020641200200512002072
S21400747010B5134CA37E5B0621D402F07FFD216875
S214007480A38C40F2E24202FB0312226094F84F10F3
S214007490A27A25200A4492FBF0F100FB1122A27288
S2140074A022890132228162680A2101FB032363607C
S2140074B0238B5A1E228313B90820FFF799FF10BDAD
S2140074C0081200202DE9F84FDFF8A081594C40F64D
S2140074D00100218901F0F0FCA37E13F0400225464E
S2140074E040F0A58043F0010303F0FD0362F382033E
S2140074F0514AA376136821891BB192888A4200D12B
S2140075009847A37A4D481D4495F82A304C4D63752C
S21400751002F09CFD6B684B4A5B7A012094E8C00041
S21400752012F8039002F03EFDD5F800A001F0C0FB73
S21400753001280AF10C04834675D120464946FFF718
S214007540F9FD0446002835D1BAF844307F08F01B10
S214007550C01A01F05BFA814606F16400384401F077
S21400756055FA8246EFF3108672B6374FD7F8A42046
S214007570D10704D5304602F0F3FB03241AE0334A61
S214007580FA663349334A3C6714700A6822F04002B0
S2140075900A604FF40062C8F800B07A662E4AFA66AF
S2140075A049462246032001F069FA50B9304602F0F7
S2140075B0D7FB5C4602F0F0F9002C36D0FFF758FFF8
S2140075C084E7D7F8A430DA0703D4244B5B685B045F
S2140075D0D0D5234B1C4F4FF0010B83F800B000F0C2
S2140075E093FB204BC3F800B04FF480537B66FB6ED2
S2140075F023F0F85323F4F81343F0506343F4803336
S214007600FB6600225146042001F038FA38B94FF4E0
S2140076100063C8F800B07B660C4BFB66AAE73046F2
S21400762002F09EFBC6E70224C4E70F4B2B61BDE8C1
S214007630F88F00BF081200209C12002014120020B1
S214007640BC1200202CC700000050084000000101BA
S214007650180F002125140020010C010000400840EE
S21400766024140020B4500844C5760000A4500844F2
S214007670044B5A6D22B95865A3F85810012070477C
S2140076800020704708120020D0B50C4CE38C0A206E
S214007690584303F05FF90646A08C0F4603F05AF9EC
S2140076A00022074B03F0BCF902460B46304639462B
S2140076B003F0E0FA03F0C6FB2083D0BD08120020DA
S2140076C00000F43F2DE9F043022887B00E460BD0A9
S2140076D003D8012800F0F681FEE7032800F0FA81BF
S2140076E0FF2800F0F781F7E7B64DCC68AB7ED907E8
S2140076F008D56FF30003AB7600236B6033682B600E
S214007700FFF7C2FFB77917F0010742D14FF0FF31FC
S21400771040F6030001F0D0FBAB7EAB4C13F0200F1D
S21400772012D0696D6FF34513AB76002900F0B28175
S214007730237895F85820627043F003032370A01C4A
S21400774003F037FD00236B65A048FFF7DBFDAB7E3B
S214007750003018BF012060F34103DAB2AB7623781D
S214007760C2F3001161F38203C2F3C00262F3C303E3
S21400777060F304132370218840F6020001F09CFB9E
S214007780617891480231C9B202F03EFC07B0BDE80C
S214007790F083218840F6030001F08EFB2378AA7E52
S2140077A0C3F3001363F382022378AA76C3F3C001FF
S2140077B0C2F30012914208D103F00303022B00F03B
S2140077C0488104D8012B00F06381002787E0A37866
S2140077D07F4A80494FF4805001F0BCFBA378022B0F
S2140077E000F0998012D8002B5DD0012B40D07A4A49
S2140077F016782EB1162B00F0CA80182B00F01081D8
S214007800764807220270437002212EE00C2B22D00D
S214007810142B00F08F80082BE9D12646704956F8C5
S214007820032F73684FF480508DE80C006D4A01F00A
S21400783091FB6D4B3268998AC8B20240674801F4E2
S2140078407F4106460A43092106F8011B0023C0F8BB
S2140078500120736009E06148002203700123437031
S2140078608370C270037142710621FFF701FF36E094
S21400787023895E4A5E494FF4805001F06BFB627AC2
S214007880237A5C4943EA02238B800B465A4A43F824
S214007890062B224652F8030FC1F8060091889980FD
S2140078A092799A711BE0A389544A51494FF480504B
S2140078B001F050FB627B237B4E4843EA0223838021
S2140078C003464F4A43F8062B224652F8031FC0F8D9
S2140078D006105168596011891981927A9A72AB7EA6
S2140078E02178C3F3C002C1F38001914207D082F031
S2140078F0010262F3C303DBB243F02003AB76002F32
S2140079003FF40AAFAB7EC3F3001282F0010262F3CB
S2140079100413AB7600E7E3783A4A3B494FF48050CD
S21400792001F018FB2A89334B05329A80374A1A60D1
S214007930E278B6E7B4F80920B4F803300292B4F857
S21400794007200192B4F8052000923149314A4FF4DD
S214007950805001F0FFFAB4F80530B4F803201F4851
S214007960DB08934228BF13462B85152300216FF0B2
S21400797004066FF02702037007238170817146703A
S214007980C27003714671C271037209216DE72279D4
S214007990E378214900924FF48050204A01F0DAFA49
S2140079A02279E3780D48134003F00303022B18BF37
S2140079B0012317220321027043708370FFF758FEDD
S2140079C037468CE708120020D412002080120020D0
S2140079D038C6000050C6000098120020B0120020E2
S2140079E083C6000023C60000BC120020F4C50000B9
S2140079F061C600009C120020FD9E000002C600002A
S214007A00A19E000016C6000071C600008D9E0000F4
S214007A109CC600002EC60000DEC60000E0C50000C2
S214007A20B4F80520E3780192227900922C492D4A79
S214007A304FF4805001F08EFA6279A1792A4B42EA1F
S214007A4001229A80294A1A60D4F80320C3F8062037
S214007A50B6E7394694F80180B8F1000F3FF43FAF1F
S214007A602348868AFFF74EFC301A04F1020980B2DA
S214007A7021B1022886BF023880B200201FFA88F3A0
S214007A8083423FF6A2AE4A46194801F099FA26E725
S214007A900021DFE795F828301648A21C0DF11701E3
S214007AA001F062FAC0B258B19DF81730002B0CBF37
S214007AB0012202222378607062F30103237043E6FA
S214007AC00122F7E70C4B9B7E9A073FF55FAE5B07FC
S214007AD03FF55CAEFFF7CCFCFFF7F4FC56E600BFC4
S214007AE0FEC60000E7C500009C1200205D9E000058
S214007AF0681200208012002008120020084A10B5E4
S214007B00146840F2E243584303FB0141536800F512
S214007B10807001EB500118441160506010BD00BF2A
S214007B200812002030B500228BB01346D91003F09F
S214007B300704415C2141CC0741BF0AA989180132DC
S214007B4001F8283C0133252BF0D10D4C0023D91029
S214007B5003F00705415C2941C9075FBF0AAD93FBE7
S214007B60F2F102FB113149194EBF237011F8281C9F
S214007B7021700133252B04F10104E8D10BB030BD90
S214007B8032120020084BD3F8882012F0A00F0AD13A
S214007B9008229A60054B1B6813F4007F14BF044A42
S214007BA0044A02231360704700400840280F002153
S214007BB00040084600400844F8B5084D084E094FF6
S214007BC004242C60D6F888305B0300D4F8BD3C60F3
S214007BD0022000F031FF2C60F4E700BF8840084622
S214007BE000400840884008440A4A53685B0708D1AA
S214007BF0094B5B682BB1094B1B6AC3F30C03013BB3
S214007C009361074B80221A60064A136823F04003EC
S214007C101360704700000840740F002100100840F1
S214007C2088400846180F002110B5046884EA01034E
S214007C3023EA020200F1806314401C6040F8042C22
S214007C4000F1C0600A40026010BD0000024B586898
S214007C50C0F30360704700BF00400840EFF3108099
S214007C6072B6104B4FF00062C3F880208022C3F833
S214007C7080200222C3F880200822C3F88020102229
S214007C80C3F880204FF08052C3F880204022C3F80B
S214007C9080202022C3F880204FF08042C3F8802046
S214007CA002F05EB800E100E0EFF3108072B6124B0F
S214007CB01978B9B9114BD3E90023002302F4105206
S214007CC013430FD10E4B10221A600C4BD3E900233E
S214007CD0002302F4807213430AD00A4B20221A6053
S214007CE002F03EB8074B10221A600029F5D1ECE7E7
S214007CF02022034BF3E700BF1C1400208016002050
S214007D009440084494400846044B00221A70044BE2
S214007D10197811B11A70FFF7C7BF70471D140020FD
S214007D201C14002038B50C4B1B789BB10B4B1C6DFC
S214007D30C4F30C0474B9FFF7E7FF094B094DD3E908
S214007D4000012246012300F4805000212B7001F030
S214007D506BFA2C7038BD00BF1D14002000100840C0
S214007D60801600201D1B00209E4B2DE9F04F1E6E36
S214007D70DA6E16409E6603F580538DB0D3F8E01099
S214007D80D3F8EC2001EA020AC3F8E8A003F5A04302
S214007D90D3F88010D3F88C2001EA0209C3F8889043
S214007DA0A3F5005359691A6A01EA02084FEA184215
S214007DB01204DA618C4AD1680291D76D916E0F4039
S214007DC027F4800121F400615166002E00F0018145
S214007DD0320440F1E780D3F888308449A02003F4C9
S214007DE0E0520A600860102041F8880C002A00F073
S214007DF0DB80DD0400F1DB805C0500F1DB804FF406
S214007E000004B0074FF000050BD5794B7749D3F83F
S214007E10883003F460420A60002A40F0CE8044F4C2
S214007E20801416F4005F0CBF00260226714B0AEA87
S214007E300303002B54D01AF4206F07D0002002F062
S214007E4075FB06202AF4802AFFF75CF81AF0090F63
S214007E5009D0674B20229A60A3F5405301229A620C
S214007E600820FFF74FF81AF0106F18D0604B20224A
S214007E709A60A3F540530122C3F8B8200093EFF3AD
S214007E80108B72B6002001F0C9FE584601F068FF5C
S214007E90009B0422C3F8B8200920FFF733F81AF431
S214007EA0202F07D0002002F041FB07202AF4802A6A
S214007EB0FFF728F81AF4803F12D04F4B4FF4803269
S214007EC01A604E4BC3F8E420D3F88020C2F30C02AD
S214007ED03C2A05D8D3F8E030DB0301D5FEF7CAFF0D
S214007EE01AF0040F09D0464B1A684FF40053002AC4
S214007EF072D0444A44F4802413601AF4806F18BF8A
S214007F0044F004041AF48023019300F090803E4964
S214007F103E4A0B8812881A44033AC2F38302009240
S214007F2004339BB23A4A00980B803A4902EB800C25
S214007F304B629CF802B003921BF007031DD19CF81D
S214007F40032012F0810F4AD1334B0DF1100A596805
S214007F501868D646AEE80300304908338B42F2462E
S214007F60F5D10CAB03EB920212F8203C039A009971
S214007F7002EB81014BEA03028A70042B03D11C49F1
S214007F804A681003FCD4264A013BC2F800C0062B00
S214007F904AD8DFE813F03E0141013E0144014701A3
S214007FA04A014A0100242CE74FF4002429E74FF049
S214007FB0007426E74FF4001423E7190402D544F0B2
S214007FC080642EE79A044CBF44F4800444F0807426
S214007FD027E70024002529E7124A13608DE70423CB
S214007FE0C4E700BF0000084000500840884008442E
S214007FF000400840090A0B09EC100844001008402D
S214008000B40402432410084416140020141400205C
S214008010D41300206010084054C7000074C7000046
S21400802018140020241008460320FEF76BFFB9F151
S214008030000F1DD019F4805F18BF44F4004419F4F3
S214008040807F18BF44F4803419F4005F18BF44F0F2
S214008050100419F4007F18BF44F0200419F4806F50
S21400806018BF44F0400419F4006F18BF44F08004B1
S214008070B8F1000F2FD018F0007F18BF46F00806A2
S21400808018F0806F18BF46F0100618F0006F18BF83
S21400809046F0200618F4802F18BF45F0040518F4A3
S2140080A0803F18BF44F4006418F4801F18BF44F4DF
S2140080B0804418F4001F18BF44F0020418F4002F80
S2140080C009D0FFF7C3FD831EDBB2012B01D90728B9
S2140080D001D144F40034002F00F0C3803A050DD5DA
S2140080E0A04BA14901221A60A04B4FF4006241F652
S2140080F01F705A6608605A6600221A67BB0104D5CC
S2140081002B2000F075FC44F0804417F4E00F07D1F4
S214008110F80440F19B80029B13F0060F00F04881A4
S214008120EFF3108972B617F4C00F4DD0904A9168DD
S2140081308909C1F3090389058E494968906948BFD2
S2140081406FEA8353C2B248BF6FEA9353000648BF34
S21400815062F0FF02854812F1460FC06D34DB13F55E
S214008160007F31D0B3EB820F2EDC01F07063B3F1E9
S214008170806F02D011F0506F26D1C00224D4222086
S21400818000F036FC794B4FF480225A60DA6DD1024B
S2140081901AD4784A01219160DA6E7749D966DA6690
S2140081A04FF4E0025A66BA0207D55A6D12F0706FA5
S2140081B01EBF5A6D02F17F425A6527F4C0072C2075
S2140081C047F4801700F014FC484601F0C9FDB802D9
S2140081D004D5292000F00CFC44F00054790227D581
S2140081E0664BDFF8889101221A604FF48053C9F875
S2140081F06430272000F0FCFB614BA0221A6010229E
S21400820043F8882C4FF48003C9F8643044F0805457
S2140082101CE044F400540AE744F4806407E744F49E
S214008220007404E744F4807401E744F00804FEE6B2
S214008230FA0275D5514B01221A604C4B4FF480520E
S2140082405A66282000F0D4FB44F000647F0508D569
S2140082504C4B01221A60454B4FF480625A6646F03A
S2140082600106494B494FD3E90001494B1A682040A3
S2140082700123324029403B7000F0D6FF00233B70BC
S214008280019BEBB1434C2368C3B1D80714D4EFF37A
S214008290108572B6404E4148378807F03F0101F01E
S2140082A03C0E022B864440F001812368002B40F0F0
S2140082B0B980284601F054FD00232360FFF732FD05
S2140082C0B8F1000F29D018F0007F14D0294BD3F84E
S2140082D03821D20600F1FF80D3F80011D3F8002130
S2140082E0520821F47F1102F4FE120A43C3F800215B
S2140082F04FF00072DA6118F0006F0ED01D4BD3F805
S214008300383113F0100F0CBF254A264A4FF40013DD
S2140083101360254B4FF000621A600DB0BDE8F08F79
S214008320FB0493D5154BDFF844904FF0010AC3F8D1
S21400833000A04FF48053C9F86430222000F058FBA8
S2140083404FF48023C9F80430D9F85C3013F4A00F3A
S2140083507FF47CAF2A2000F04BFB144BC3F828A018
S21400836054E700BFA45008446C500844005008402E
S214008370007008400040084000000101B450084466
S2140083808840084494500844801600201D1B002096
S2140083907C1600201814002014140020D41300208B
S2140083A00041084418410844204008440010084092
S2140083B04F4B01221A604F4B4FF4805159664E497D
S2140083C00A604FF400625A664C4ADA66EFF3108A87
S2140083D072B64B4B1B780BB100F01AFC494B1A6D6A
S2140083E0FFF734FC032802D0C2F30C02B2B1464BAE
S2140083F01A78464B4FF001091A70504601F0B0FC4F
S214008400B9F1000F0CD1424B83F80090FFF74CFCFB
S2140084104FF48052002314431D4317E79146ECE7C0
S2140084200022F7E723F00103226822F001029A42B5
S21400843040D1002222601A886FEA42426FEA524216
S2140084409E451A8029D1334A108800EB0709324F1F
S214008450A7F1400A043880B2A9EB00011FFA81FE9A
S214008460191DB94228BF514604282DD810809A7885
S2140084701B882449C3F30C03CB6302F00702274B87
S2140084800EF07F01042A3180D960586205D1244B52
S2140084901B6803B1984700F023FA1A4BD3F8E03074
S2140084A0D9037FF506AFFEF7E5FC02E7012B08BF10
S2140084B07346B9E75A1A17490988121A48BF403254
S2140084C004399142B7DCF4E6B1F900C0BCF1000F04
S2140084D0CCDA0B46BEE7D3F81811D3F818215208A9
S2140084E021F47F1102F4FE120A43C3F81821FFE6B6
S2140084F0B450084400500840A4500844000001014D
S2140085002414002000100840251400201D1400200C
S2140085101C140020161400201414002060100840BC
S2140085202014002070470000094B1B6830B5C517A3
S214008530A3FB000110F1807003FB051141F100015F
S214008540400E40EAC110803820EAE07030BD00BF1F
S21400855040140020F8B50C460546002800F09D8023
S214008560E10761D5C08A002800F09880544B9B88AC
S214008570C01AAB68C3F17F4303F57F0303F5764368
S2140085803C334FF47A7202FB0030FFF7CDFF4D4BC1
S2140085901861688A002800F08480494B9B88C01ABE
S2140085A0AB68C3F17F4303F57F0303F576433C33A3
S2140085B04FF47A7202FB0030FFF7B6FF414BAA8AEF
S2140085C09860002A70D03E4B9B88D21AAB68C3F1E5
S2140085D07F4303F57F0303F576433C334FF47A710C
S2140085E001FB02326B68D21A374B688B1968D717B3
S2140085F0A1FB022312F1807201FB073343F1000353
S214008600520E42EAC3122F4B803ADA6000284ED050
S2140086102B4B9B88C31A4FF47A705843A0F6C410AD
S214008620FFF782FF274BD861A2071BD5EB894FF4D3
S2140086307A70584323B12B6803F51C531033184443
S214008640FFF772FF1F4B9861288B98B3AB684FF407
S2140086507A7202FB0030A0F503501038FFF764FF73
S214008660184B5861630718D52B8A33B34FF47A70CA
S2140086705843A0F503501038FFF756FF114AA98952
S21400868010604FF47A70484321B12B6803F51C53F1
S21400869010331844FFF748FF5060F8BD47F23050DB
S2140086A073E747F2305087E747F230529CE747F2CD
S2140086B03050B5E747F23050D0E747F23050DBE7AE
S2140086C03A140020900F00214014002008B500F452
S2140086D07813B3F5802F1FD007D8ABB1B3F5003FA2
S2140086E029D0BDE8084001F065BEB3F5002F1ED0C6
S2140086F0B3F5202F25D0B3F5C02FF2D1FEF7F8F84A
S214008700134BD3F810310CE0FEF7F2F8104BD3F809
S2140087100031C3F3042306E0FEF7EAF80C4BD3F867
S2140087200C31C3F308230133B0FBF3F008BDBDE8FA
S2140087300840FEF7DDB8FEF7DBF8054BD3F8083146
S214008740EFE7FEF7D5F8024BD3F81431E1E700BFA8
S21400875000400E4038B5124D4FF400222A60114AF0
S2140087601060114A1268D2B1104B114C1B6F00F505
S214008770F42000F59070B0FBF4F4033CE4B203F090
S2140087800703A34202D0204601F0D8FA094B1B7813
S2140087902BB1094B4FF4702224041A602C6038BDAC
S2140087A094400846240000208009C64300300E404E
S2140087B040420F003814002094400844F0B5334A75
S2140087C0334D51681068127A85B001AB03C31A7036
S2140087D0304B314A9C6B1B6B1168304A13F4801F78
S2140087E02F4B12681B6801FB042404AA14BFE4186C
S2140087F0E41A2C4BB4FBF3F313442B4A13F80B6C1C
S21400880004ABF440B4FBF2F21A442B6812F80B7C6B
S21400881023B92B20FEF776FB01232B602A68234B17
S21400882043F6FF51196004EB5203B3FBF2F3013B2E
S2140088301F4A43EA063343EA872313601D4AB4FB04
S214008840F2F302FB1344642254431B4A944298BF3B
S21400885003F1FF335C08651E5C1C6408072D04F1F9
S214008860FF3403D8072C01D81DB914B91020FEF721
S21400887049FB124B4FF4EE621A60240203F10073B8
S21400888044EA05141C6005B0F0BD00BF74C70000C4
S21400889024000020003008402C140020341400204F
S2140088A03014002040BE4025401B5F13A4400844FF
S2140088B0A440084600F04902FFEF49023040084451
S2140088C0064B5B6BC3F3C20203F0070002B15043D2
S2140088D0C3F3821303B15843704700BF003008400B
S2140088E0064A1146536803F07063B3F1C06F02D1B5
S2140088F0D36BDB06F6D540238B60704700400840FC
S214008900204A936903F03001202910B525D1C3F31E
S21400891002441CB1C3F3C422B2FBF4F413F4C01F28
S21400892018BF64006408032C28BF0424112001F03B
S21400893041FD144A116B8BB22BB1C1F30741C0083D
S2140089404843B0FBF3F3926902F03001102910D0CF
S214008950202910D003FB04F010BD936903F4E073E4
S214008960402B02D0B3F5807F01D10224DEE701243C
S214008970DCE75B08EEE7C2F3C4220132B3FBF2F396
S214008980E8E700BF006008400D4BDB6C13F0200FDB
S2140089900CBF00200420D90648BF02301A0744BF87
S2140089A00230C0B2590744BF0230C0B29A0744BF73
S2140089B00130C0B2DB0744BF0130C0B2704700BF11
S2140089C000000840094B08221A6001221A60102293
S2140089D01A6080221A6040221A6020221A6004223E
S2140089E01A604FF480721A60704700BFC8400E4687
S2140089F0044BD3F89430002BBCBF034BC3F8800065
S214008A00704700BF0040084000000840084B094976
S214008A101B68096830B54FF000440025E3FB0045AD
S214008A202A460023E0FB01231046194630BD00BF4E
S214008A304414002048140020F8B50F4CFFF7E6FF5A
S214008A40A569216BE368DB0714D549088842074609
S214008A5028BF0F46A269954288BF266BA2EB050386
S214008A6084BF01369B199F42F4D8984202D9C01A97
S214008A701546EBE7F8BD00BF005008402DE9F0476B
S214008A8003469246EFF3108072B6DFF880E1584C4A
S214008A901A0196444FF4807C01250CFA03FCBAF1C7
S214008AA0020FCEF80050C4F864C004D101F058F9A3
S214008AB00120BDE8F087A269246BBAF1010F04BF5C
S214008AC0551C49190025013445F100050027AF4221
S214008AD008BFA14218D28A423CBF454F3F6BA2EB6B
S214008AE001063CBF0137F6194FEA940800274FEA03
S214008AF0950948EA8578B94508BFB04506D301F020
S214008B002FF90020BDE8F087091BDFE7384F3C6FE0
S214008B10FF6E27F0604703F1090524F0E00427F410
S214008B2060072E02E4043F0C2D0646F001063F04C3
S214008B3045F48035E40CB4420CBF04240024AF4254
S214008B402B4DEF6E27F0E0074FEAC7474FEAD747AF
S214008B5008BF44F00204BE4208BF44F0010414F00B
S214008B6001071CBF234E316005EB0316073305EBE8
S214008B700313C6F8801011265E60AB699A42A3EB19
S214008B80020682BF2B6B0133F618194B8A42A1EB03
S214008B90020582BF1A6B0132AD18B542DA6D85D870
S214008BA012EA0C0F82D1BAF1000F05D10122CEF8DD
S214008BB00020C3F864C0A2E7C3F860C047B10E4BFC
S214008BC00E4941F61F7240F201151A600D601A60D8
S214008BD0A20706D5084B0949094A0A4D1A600D60D6
S214008BE01A60630742BF084B01229A605EE700BF27
S214008BF000500840281400206C5008446C5008466A
S214008C0000001F1F00000101004008407450084487
S214008C1010B5EFF3108472B6FFF718F8032806D1E4
S214008C20074A536823F0F00343F0E0035360054B14
S214008C30012220465A62BDE8104001F091B800BFFC
S214008C407C0F00210000084038B1044B6FF0FF0293
S214008C501A6003F1007310401860704718700844DB
S214008C60704708B590F86030032B04D00846FEF72E
S214008C705DF8002008BD022008BD70B590F8603091
S214008C80032B05460E4611D02971416A39B1FEF70D
S214008C9037FA30B9686269882846FEF74BFA002032
S214008CA070BD31462846FFF7DCFFF8E7022070BDAE
S214008CB01B4B5B6803F07063B3F1E06F0AD011D80A
S214008CC0B3F1407F28D007D8B3F1807F02D0B3F14C
S214008CD0007F11D102207047B3F1806FFAD0B3F154
S214008CE0A06FF6E7B3F1206F14D00DD8B3F1006F84
S214008CF010D0B3F1106F11D00A4BDB6813F0060FDB
S214008D0014BF042001207047B3F1306F02D0B3F1D6
S214008D10406FF1D10420704703207047052070474C
S214008D20004008400050084003789A0770B5044693
S214008D303DD5426A002A3AD06FF341030370536967
S214008D401A68531C09D01A49D1F83C311B0C1B0475
S214008D5092B21343C1F83C3170BDD0E91223002211
S214008D6003F00403134304D1037843F002030370B3
S214008D7070BDEFF3108072B62569E36805F48035A0
S214008D802B43E36000F0ECFF002275B90023D4E922
S214008D90120102400B4052EA030108D00549A4F133
S214008DA00C000968BDE8704008470423EFE770BD73
S214008DB000400840280000202D4B1B6870B52BB1E2
S214008DC02C4C246814B12C4D2D682DB92B4B2A221F
S214008DD01A602B4B1860FEE7002942D0012934D0D8
S214008DE0B4F900108A4203DC26499142B8BF114606
S214008DF02822A1F1C80393FBF2F3234A646815788E
S214008E005B421BB29D42DCBF05F1FF331BB24FF441
S214008E107A7604EBC3020133508852681BB211FB0A
S214008E20002020EAE0709D4200F5FA70B0FBF6F2F2
S214008E3019DC03F10053013B34F83300904228BF9D
S214008E401046002808BF012009E0062335F9131054
S214008E50914218B202DD013BF8D118460130C0B28B
S214008E6070BD1C46BCE734F833008242D1D9E0E737
S214008E7060160020681600206416002014000020EB
S214008E8018000020C880FFFF4C140020FEE70000FA
S214008E90084B196C10B500225C6C0A43110A02706C
S214008EA0120C8270220AC270230E220C41700271CC
S214008EB0437110BDB081E00F244BD3F8F82170B495
S214008EC010EA020419D1D3F8FC5103F5FC72521BC8
S214008ED09210022A13D0032A2ED0012A1DD01C4C31
S214008EE0D3F8002264682C6005F10C046860C3F8AF
S214008EF0FC41A96013680C33136070BC7047144CB7
S214008F00D3F8002264682C601E1D68600424196073
S214008F10C3F8FC61146070BC70470D4AD3F8004279
S214008F2052682A601A46082542F8080B5960C3F8AA
S214008F30FC21256070BC7047054ED3F80022766889
S214008F402E606860A960C3F8FC31E3E75C1400207B
S214008F50001000E00EB400B501466420FFF7ACFF39
S214008F605DF804EB03B0704770B51E46038A0446EE
S214008F7015461BBBC27D003218BF01220A7062B1C3
S214008F80E27D013AE27504F1100102222046FEF766
S214008F90FDF9E37D0BB9638A2382228AB24228BF99
S214008FA0324629462046FEF7F1F9238A1B1A238209
S214008FB0E37D13B9638A1B1A638270BD0022DDE766
S214008FC070B5044615461E4611B3FEF79BF9A38AF4
S214008FD0181A80B2012829D9E37D63B1E368628A52
S214008FE01A70120A07D02068A18A013301448B4206
S214008FF028BF0346F4E700236382A368E3600222E7
S21400900004F112012046FEF78AF9E37D0133E37589
S214009010324629462046FEF782F9638A0344638275
S214009020E37D23B9238A0344238270BD002070BDEC
S2140090302DE9F047032800F2D780DFE800F08D0224
S2140090408689002425460126EFF3108872B6002E86
S21400905040F08480002D40F08180644AA023136095
S214009060634BD3F8A41011F0010F92460AD0614961
S21400907001220A604FF4006159665F490A604FF4A6
S21400908080525A665A4F5D4BFB6600233B67FEF7DD
S21400909093FD5B4ADFF88491136843F04003136046
S2140090A0584BFF221A604FF48073C9F80830042327
S2140090B0CAF80030002E00F09080FFF7A9FD2220AD
S2140090C0FFF796FC4FF480237B602023C9F8083016
S2140090D0494B01221A604FF480537B66002D78D0EE
S2140090E0204601F023FA484B01221A6004B3474B8E
S2140090F0DA6E9A6603F580431A6ADA6103F500535E
S214009100D3F88C20C3F88820A3F54053DA6F9A670B
S214009110A3F50053D3F8EC20C3F8E82003F5C043CA
S214009120DA6B9A63A3F50053394A5A66FEF7ECFDEC
S214009130404600F015FE002E56D036490868FFF768
S21400914083FD00230B60BDE8F087002401257AE745
S21400915001242546264677E70024FAE72E4FFEF739
S21400916075FD032804D13B6803F00F03032BF6D1EB
S214009170002D3FF472AFFEF71FFDDFF89CA0274FCF
S214009180DAF80090FEF762FD09F00F03984208BF78
S214009190C9F30313032B01D0092B06D1D7F88C3063
S2140091A0DB03EDD47B6F0C2BEAD91D4B01221A6032
S2140091B003F17E437C3304221A60FEF747FD28B98C
S2140091C0154A536823F0F003536046E7FFF788FB21
S2140091D0F3E7404600F0C4FDAFE7002D80D14046DF
S2140091E0BDE8F04700F0BCBDBDE8F0878840084405
S2140091F000500840A4500844B45008440000010140
S214009200180F0021004008440C40084400000840A5
S2140092105000F002541400207C0F0021004008404B
S2140092200C400846000000005D4B2DE9F14F9046CB
S2140092301F6859A3D3E9002302400B40134304469A
S2140092400D467BD0574B00F08052D3F89030002369
S214009250134309D0544B1B6803F07F43B3F1007FE0
S21400926002BF524B02221A6004F0C052002313437E
S21400927005D04F490868FFF7E7FC00230B6004F0B1
S2140092800102002313433FD00022002301200021C7
S21400929000F084F9DFF838A1EFF3108B72B6FEF712
S2140092A0D5FC444B9A689209C2F30903920548BF5D
S2140092B043EA0A0306460FFA83F9FEF7C7FC0238AC
S2140092C0C0B201285CD8023EF6B2012E8CBF002642
S2140092D00126584600F044FD19F5007F52D1002EB5
S2140092E0DAD10120A7F81290FFF7A2FE324B3349DD
S2140092F04FF400121A600868FFF7A6FC00230B6004
S2140093003B7B43F008033B73002205F00403134342
S21400931014D0A24625F0040BEFF3108072B6FD6958
S214009320BB6905F001052B43BB6100F019FD002465
S2140093306DBB002544EA0A0445EA0B05D7E9152368
S21400934014401D4054EA05030ED01D4B22461968F2
S21400935038462B4604F008040025884754EA0503DF
S2140093601EBF184B00221A6018F0010F11D0164AC3
S21400937013680020106063B101B0BDE8F04F1847D5
S2140093800026A6E7114A002E08BF9146A9E7042545
S214009390D0E701B0BDE8F08F010018180400000007
S2140093A0F411002000500840280F00210040084615
S2140093B05414002000700840186008445014002020
S2140093C0280000208C1600205814002000FEFFFF06
S2140093D000FCFFFF70B586B00E4615460446182200
S2140093E00021684601F05CF90134054B009369469C
S2140093F0042001940296039500F08EFE06B070BD20
S2140094006C16002037B50D461446FDF709FAB8B1BC
S2140094100369828AC3B14FF6FE718A4214D10020D6
S2140094200090ADF804006946984738B9009B2B6059
S214009430BDF804302380286820B9208003B030BDF2
S2140094400120FBE70020F9E72B602280F3E737B521
S2140094500D461446FDF7E4F940B1036923B1818A4D
S2140094604FF6FE72914204D00E2000E0012003B0B9
S21400947030BD0095ADF80440694601209847F6E7F0
S2140094801F4B1B78D90742BF1E4A4FF480611160FC
S2140094909A0742BF1B4A4FF400611160580742BF4B
S2140094A0194A4FF480611160190742BF164B4FF4FA
S2140094B000621A60154B4FF480621A60144B1A68EB
S2140094C0920642BF134A4FF4807111601B6803F086
S2140094D0A003A02B10D1104A136AC3F30803032B72
S2140094E00CD95368D2680332C2F30802134403F15E
S2140094F000531A78094B5A600020704703207047C3
S21400950088160020A0000846A40008461C600844F0
S214009510180F002188400846001008401C0F002144
S2140095200A4B0B4910B50362002343624FF6FF74E3
S214009530CA18D289944201D9144612B11833F02BB6
S214009540F6D12146FDF7F6FD204610BD58CA0000AC
S21400955068CA000037B58DE8060004469DE803009B
S214009560251D85E805002373069B23610A4ABDF87E
S2140095701C30A3820023236013682BB1196809B935
S2140095801C6002E00B46F9E714609088013080B258
S214009590908003B030BD00BF74160020002908BFBD
S2140095A001282DE9F04706460F4602EA000803EABE
S2140095B0010920D0C0F00581002908BF0428DFF883
S2140095C010A235D1EFF3108072B6DAE9002322F04C
S2140095D0040242EA080243EA0903CAE9002358EAF9
S2140095E0090314BF784A794A4FF480631360BDE8D4
S2140095F0F04700F0B5BBEFF3108072B67449D1E9BE
S214009600002322F0010243EA090342EA0802C1E904
S214009610002358EA09036F4A4FF0010304D093630E
S21400962002F1C0623C32E1E76B490B609363DEE710
S214009630FEF714FBDAE90045684B24EA060425EA3F
S214009640070544EA080445EA09051E68CAE9004514
S214009650FEF72AFB04F0AA620023134348F2020135
S21400966008BF4FF40041B20748BF41F40051002242
S2140096705B48FEF7D9FA04F400420023134304F4CF
S21400968080324FF0000314BF4FF480510021134383
S21400969004F010024FF0000318BF41F4807113432A
S2140096A004F020024FF0000318BF41F400511343AA
S2140096B004F040024FF0000318BF41F4007113435A
S2140096C004F080024FF0000318BF41F4806113439A
S2140096D018BF41F4006100224248FEF7A5FA05F0E3
S2140096E004030022134304F400624FF0000314BF87
S2140096F04FF480210021134304F480424FF000030E
S21400970018BF41F48031134304F002024FF0000307
S21400971018BF41F4801113434FF0000304F40032E5
S21400972018BF41F40011134318BF41F4002173071A
S21400973048BF41F0040101222B48FEF775FA2B4B77
S2140097402B492C4816F0010F18BF194604F080422A
S2140097500023134318BF41F000710022FEF764FA9D
S21400976004F0010100222448FEF75EFA04F4802289
S21400977000231343214B2249224804F004044FF0EF
S214009780000518BF194654EA050318BF41F4806166
S2140097904FF4A022FEF748FAEFF3108072B61A4B89
S2140097A04FF000621A6080221A6008221A601022A7
S2140097B01A604FF080521A6040221A6020221A6007
S2140097C015E7BDE8F08700BFEC100846EC1008442B
S2140097D080160020007008403C7008447C1600206C
S2140097E06C0008408C60084020400840001C700058
S2140097F000187000685008403C7008400D0A0A09BE
S214009800090A0A09EC10084000E100E037B50379C0
S214009810124A03330446019300F14403009306CA38
S21400982002231430FFF796FE228A0192E268237A1A
S214009830009204F12C0094E80600FFF78BFE237AD2
S214009840A4F84500054684F844302279216804F1DE
S214009850470001F0AEFC284603B030BD00CC000047
S21400986007B503790193054A0368009306CA0223E5
S2140098700830FFF76FFE03B05DF804FB08CC00006D
S21400988070B50D4C0D4B06460D4694E803000834A3
S21400989083E803001846FFF7E3FF094B94E803004C
S2140098A002221A7283E80300DE601D821846BDE8B5
S2140098B07040FFF7ABBF00BFD8CB0000F01A002007
S2140098C0901600200A4B40F2011210B51A604FF0B5
